:02000002D0002C
:1040000000400D00649C0D00000006000D0005013D
:084010000401FD08000000009E
:04401800EC930D0018
:1040200009480A49884208B505D0094A824202D0A7
:10403000121A04F0F3FF0748074A0021121A05F08C
:1040400015F8014808BD00BFF8DE0320C89B0D002D
:104050006CDF032070DF0320F1E7032070B5074E0B
:10406000074C04F005FBA41BA4080025A54200D1C1
:1040700070BD56F8043B98470135F7E78C9B0D005F
:10408000B49B0D0000F0D8B808B500F037FABDE8D1
:10409000084004F0A5BA02F05BB802F059B802F08B
:1040A0005FB8000008B5034A00210C2001F052FF60
:1040B000FEE700BF755C0D000078B0FA80F04009A3
:1040C00070470123037070477047006A0368DB681C
:1040D00018470000014B01221A7070472CE303209F
:1040E0000A4B10B50446036002F0DCFF214603F0E2
:1040F000DAF904F02DFA04F01FFA2046044B40F8D8
:10410000043B03F0BDF8204610BD00BF68950D00CC
:1041100050950D0010B50446FFF7E2FF204624211C
:1041200004F07EFB204610BD0EB410B58DB00FAA72
:10413000016852F8044B039200232020CDE90403C8
:10414000CDE900421E2004AA01F00CFF0DB0BDE82D
:10415000104003B07047000038B5174D174C2B784E
:10416000BFF35B8F13F0010F0BD12846FFF7A4FFBD
:1041700038B104F0EDF8C117C4E900012846FFF793
:10418000A0FF04F0E5F8D4E90023C117994208BF65
:1041900090420FD004F0DCF8094A138801331380F1
:1041A000084A1388C11701331380C4E90001064B84
:1041B00000221A7038BD00BF7CDF032088DF032097
:1041C000CCE103209AE003202CE3032030B585B036
:1041D0000D4600226946009201F0DCFEB0B9009C59
:1041E0000CB1236923B90A4A00210A2001F0B2FE6A
:1041F0000023ADF806300C23ADF8043004230393FC
:104200000295236901AA01212046984705B030BDD7
:10421000755C0D0007B5032001A9FFF7D7FF40B972
:10422000BDF8043000EE103ABBEECC0A03B05DF8E6
:1042300004FBBFEE000AF9E71FB50121072004F0D7
:1042400087FA0321084604F083FA0022114603A8E6
:10425000039201F0FFFC039B142B4FF0000235D1B9
:10426000214A13780133DBB2062B137037D81F486D
:1042700000F08AFF18B91E491E48FFF755FF9FED51
:104280001E0A1E4801F058FA1C480022172101F0AE
:10429000CDFB002301221A49009303204FF0FF3386
:1042A00002F03EFBFFF7B6FF10EE100A04F026FC0A
:1042B00002460B460F481349FFF736FF124B1A7898
:1042C0000AB902221A7005B05DF804FB114603A872
:1042D000039201F0BFFC039B8C2BC8D1C0E70B4BB2
:1042E0000D221A70C3E700BF00F40320F4E103209D
:1042F00000940D00A4E5032000C064449CE003206A
:10430000D5400D000C940D002DE30320A0DF032009
:1043100038B5046805467CB16368013B63605BB9EE
:10432000236820469B689847A368013BA3601BB99C
:1043300023682046DB689847284638BD30B55A497F
:104340005A48A3B0FFF7F0FE0121072004F011FA4C
:10435000FFF760FFFCEEC07A12A9CDED077A0720C7
:104360009DF81C50FFF732FF041E5148A8BF129C55
:1043700000F085FA4F4B0C9301238DF834304E4BEF
:104380008DF83A501B888DF836301A124B4B8DF849
:1043900035201B888DF838301A1255238DF83930A6
:1043A000474B8DF837201B788DF83C30454B8DF806
:1043B0003B401B788DF83D30434B1A788DF84020F8
:1043C000511C40BA1970ADF83E0040493748FFF71C
:1043D000ABFE01F03DFE60B13D4B3E4A1B788DF8CF
:1043E000003012A83C493C2302F0A6F813A8FFF7BE
:1043F0008FFF002300933948022316220CA900F0F6
:104400005BFC044600284CD1F923354D8DF826304D
:104410000DF12703CDE90300CDE9010000932F48FA
:1044200040F6B8330DF12602294600F04BFD002876
:1044300032D09DF826301E48EC549DF82730079363
:1044400000F01DFA2D789DF840402649264A079B2A
:10445000A54218BF0A46CDE900024021234A12A80E
:1044600001F08EFE114812A9FFF75EFE01F0F0FD8B
:1044700060B1174B1E491B788DF800300AA83C2309
:1044800012AA02F059F80BA8FFF742FF00210720FB
:1044900004F06FF923B030BD16490448FFF744FE1D
:1044A000F4E71549F9E700BF3A940D00A4E50320AD
:1044B0009CE003200000FFFECCE103209AE00320F3
:1044C00000F40320A0DF032090DF03205A940D00A6
:1044D00080DF03206D940D0080940D00F4E1032033
:1044E000A1DF03202D940D002F940D0088940D0062
:1044F000AF940D00B6940D0007950D002DE9F04125
:10450000164DDFF860802B78022B08D0062B1FD0C9
:1045100098F8003003B3BDE8F041FFF71DBE104C22
:1045200001F0B0FBD4E90032C61A62EB420747F251
:1045300030520023B242BB41EADA012388F800304E
:1045400001F0A0FB00236360206006232B70DFE7EF
:10455000FFF7F4FE0223F9E7BDE8F0812DE3032025
:1045600098DF03202CE3032070B5D0E90053142614
:10457000044606FB0356AE4204D0284603F01EFE56
:104580001435F8E7206801F0EBFD204670BD884245
:10459000F8B504460D46164616D9904215D2A2F13A
:1045A0001406751AA1F114072C44B7421CD02CB183
:1045B0003146204603F06AFE337C2374304603F014
:1045C000FDFD143E143CF0E70ED0B5420CD02CB1EA
:1045D0002946204603F05AFE2B7C2374284603F01C
:1045E000EDFD14351434F0E7F8BD2DE9F04100235A
:1045F000C0E9003383604F689F4204460E4623DDC6
:104600004FF0140808FB07F001F0A2FD0546D8B1F1
:10461000D4E9001208FB0212FFF7B9FF206801F08D
:104620009FFD2560A760D6E9007308FB0378B845B5
:1046300008D03946284603F043FE3B7C2B741437E0
:104640001435F4E7736863602046BDE8F08100002C
:10465000F0B52E4B2E4A01251D702E4B00248DB037
:104660009A601C609C809C71032001F0A5FC21468F
:10467000284601F0B1FC2946042001F0E3FACDE917
:104680000044029403F064FF234C0646694603A8E5
:10469000FFF7ABFF274603A906A8FFF7A6FF1F4BAE
:1046A00047F8043B06A909A8FFF79FFF09AA1E21A6
:1046B000384603F052F809A8FFF756FF06A8FFF79F
:1046C00053FF174B2360266203A8FFF74DFF154BDE
:1046D000236003F03DFF4FF4165103F029FF02F071
:1046E000E1FC2146104C02F0CAFF6846FFF73CFF90
:1046F0000E4B02220621204600F0DEFF2A4621460C
:104700000B4800F0CFFA0DB0F0BD00BF80DF0320F2
:104710000000FFFF70DF0320D0E1032050950D0063
:1047200070990D0068950D009CE003203CE3032088
:10473000F4E1032001600271704700680368DB68E0
:104740001847006803681B6A1847006803689B6A7B
:104750001847006803689B6B184737B505460C4639
:1047600019460192FFF7F5FF2868019A03685B6913
:10477000214603B0BDE83040184700680368DB6B92
:10478000184738B50446006803680D465B6B9847C8
:1047900029462046FFF7F1FF257138BD38B504469C
:1047A000006803689B689847054618B12179204640
:1047B000FFF7E7FF284638BD006803681B6C184701
:1047C000006803685B6C184700680368DB6C184777
:1047D000006803681B6D1847006803685B6D184725
:1047E000006803689B6D18472DE9F843044600688C
:1047F0000A9F1E4603681B69DDE90898984705462D
:10480000C8B11EB12046FFF7E3FF3070B9F1000FC9
:1048100004D02046FFF7D8FF89F80000B8F1000F58
:1048200004D02046FFF7D8FF88F800001FB12046CB
:10483000FFF7D6FF38702846BDE8F883012070479F
:104840000379032BFCD00120704700207047817151
:10485000704741717047C17270470173704741736F
:104860007047837B23EA0202114381737047C0794A
:104870007047007A7047407A7047807A7047008AA4
:1048800000B270470079704701717047408A80B26A
:104890007047808A80B27047C08A80B2704738B54E
:1048A00005460C462B682846DB68984728B9002C3B
:1048B000F8D0204601F08CFCF4E738BDF8B5054689
:1048C0000F46144601F0DEF9064601F0DBF9801BC5
:1048D000B8420AD22B682846DB68984730B9002CCA
:1048E000F3D0204601F074FCEFE70020F8BD70B56E
:1048F00004460E4601F0C6F9054601F0C3F9401B17
:10490000B04204D22379032BF7D0012070BD0020E0
:10491000FCE770B5C3690446B3B101F0B3F964268E
:104920000546236820461B6B984768B101F0AAF939
:10493000E369401B984209D80A21012003F06DFB6E
:10494000704301F045FCECE7012070BD0020FCE75E
:10495000064A0260FF210022027141714282C17247
:10496000828281818273C282C261704780950D000C
:104970007047704770477047704741717047817149
:10498000704701717047000030B5034D056001713B
:104990004271837130BD00BF00960D00704710B5A5
:1049A0001021044603F03CFF204610BD0EB403B5B1
:1049B00003AB002153F8042B019303F0F2FA02B089
:1049C0005DF804EB03B0704773B5044608462279DE
:1049D000A36832B1A3B90B4902B0BDE8704003F03F
:1049E000AFBA094A267B094D0949647B012E18BFDD
:1049F0002946CDE900140749FFF7D8FF02B070BD82
:104A0000054AEFE73D960D0037990D0039960D00E8
:104A100035960D0053960D002C960D0010B50446EA
:104A2000FFF7B2FF054B2360054BA36001232373FF
:104A300000232361A382204610BD00BF8C960D0089
:104A400078960D0013B50B4C2178BFF35B8F11F0F6
:104A500001010BD120460191FFF72EFB019928B1EE
:104A6000054803F0F1FA2046FFF72BFB024802B09D
:104A700010BD00BF30E3032034E3032007B50191EC
:104A8000FFF7E0FF019903B05DF804EB03F08EBB84
:104A900008B5FFF7D7FFBDE8084003F08DBB08B5A8
:104AA000FFF7D0FFBDE8084003F087BB10B50379DE
:104AB000042B20D0032B20D0022B20D0114A1249E6
:104AC000012B18BF0A4641798379013918BF0121AA
:104AD00033B1012B04D0022B02D0032B18BF0023CB
:104AE00000240473026101754375FFF7ABFFBDE855
:104AF000104003F0B3BA054AE5E7054AE3E7054A83
:104B0000E1E700BF80841E0040420F000024F40053
:104B100000127A0000093D0008B5FFF793FFBDE8D9
:104B2000084003F0ACBA10B50446FFF78BFF04F160
:104B30000801BDE8104003F0CBBA08B5FFF782FFCB
:104B4000BDE8084003F0AABA08B5FFF77BFF08BD2F
:104B5000002302481A461946FFF760BF3CE30320D2
:104B6000012A05D1007A0B781B1A58425841704728
:104B7000002070472DE9F04F264D012387B02B70A0
:104B80006B7000230F46A97000930322FF23294670
:104B9000064600F0E7FB20B10024204607B0BDE840
:104BA000F08FFA238DF8173001F06CF806F1040944
:104BB0008046AA4608F57A6401F064F8201A0028B5
:104BC000EADD81B200224846FFF7BFFD0028F3D09E
:104BD0000023CDE90233CDE900330DF11702514630
:104BE000304600F0C9FB04460028E3D09DF817309A
:104BF000012BDFD995F800B0BBF1020FDAD148469E
:104C0000FFF7E6FD5B4602463946304600F021FBE1
:104C1000C3E700BF54E30320012A2DE9F34107460F
:104C20000E4614463BD94D79022D30D100F10408CF
:104C3000C97901914046FFF7CBFD083C2B4602465F
:104C40000199384600F005FBE5B206F1080300249F
:104C50002246954204F10104E4B204D913F8012B71
:104C6000397A9142F4D104F108010E44A54216D9D3
:104C700016F8011B01914046FFF7AAFD01340246D8
:104C8000019902233846E4B200F0E3FAEEE7032D7F
:104C900005D1897902B0BDE8F04100F0C3BA02B095
:104CA000BDE8F08110B5044600F014FB014B236011
:104CB000204610BDC0960D002DE9F047F92A9DF859
:104CC000209006460F4614461D4625D8FF2B14D1CA
:104CD000DFF84880404600232246394600F8013B71
:104CE00004F09CF9621CCDF820902B4641463046DA
:104CF000D2B2BDE8F04700F035BB194600F04EFADD
:104D00000028E5D1336829469B683046984700283B
:104D1000DED10220BDE8F0870120FBE754E3032049
:104D20002DE9F04F89B09846FA238DF81A300DF12D
:104D30001F0303930DF11E03DFF880A102930DF111
:104D40001D03019307AB0093894617460DF11B0322
:104D50000DF11A025146DDF848B0054600F00CFB93
:104D60005646044620B90024204609B0BDE8F08F1D
:104D70009DF81A3073B39AF800205ABBB8F1000FAF
:104D800003D09DF81B2088F80020BBF1000F03D052
:104D90009DF81C208BF80020139A1AB113999DF8E6
:104DA0001D200A70149A1AB114999DF81E200A70D9
:104DB000159A1AB115999DF81F200A703A783D4945
:104DC000013BDBB29A4288BF3B703A78484604F018
:104DD00025F9C9E79DF81C20FF2AC4D1012BC2D9AF
:104DE0003278012ABFD12A7A9DF81B40A242BAD05C
:104DF000DF1E3149FFB200235FFA83F8474506D929
:104E000011F8010B824203F10103F5D1ABE705F183
:104E100004094846FFF7DCFC0223024621462846E7
:104E200000F017FA95F8173193B1244CA31BDBB2AD
:104E30009F420CD9E17805914846FFF7C9FC0599D6
:104E400002460223284600F004FA0134EEE7B84691
:104E50002B687278DB681A4928469847044660B187
:104E60000223002433709DF81A209DF81B3013494B
:104E70000094284600F076FA76E795F81631434517
:104E80007FF671AF95F81731002B3FF46CAF9DF8AA
:104E90001A202B7A09493E440132F3709DF81B30E9
:104EA0000190D2B200932846FF238DF81A2000F01B
:104EB00023FA59E755E3032057E3032054E3032083
:104EC00056E303202DE9F04F85B080461C46DDE90E
:104ED0001056129F8946924600F0D4FE08F1040B4A
:104EE000044400F0CFFE201A002816DD81B2002213
:104EF0005846FFF72AFC0028F3D00F9B0093CDE91A
:104F000002670E9B0195524649464046FFF708FF4F
:104F10000028E6D005B0BDE8F08F0020FAE70000D9
:104F2000F0B585B0054604300E460392FFF750FCFD
:104F3000039A07463146284600F047F902280446FE
:104F400001D005281BD13178284600F06BF9727822
:104F50002B7A9A4213D00B4C03232370337863705F
:104F6000717802233A46284600F073F90023009333
:104F7000214673780222284600F0F4F904462046C0
:104F800005B0F0BD54E3032010B50446FFF7D2FB93
:104F9000C8230021E3810323A160217323744FF40C
:104FA000807204F1110004F061F8204610BD1FB5B5
:104FB00004460192FFF700FC204600228021FFF703
:104FC000FFFB2122019B8DF80F200DF10F01012223
:104FD0002046FFF7C2FB2046FFF7B3FB04B010BD2D
:104FE0002DE9F04F057B0135EDB287B004468946C7
:104FF0009246984605730027227C3B469A4207F169
:105000000107FFB26BD329462046FFF7D5FB012FDE
:105010000DBFC0228022402100212046FFF7D0FB97
:105020004346524649462046FFF797FB2046FFF786
:1050300088FBB8F1FF0F54D0012F82BFA368013362
:10504000A36000F01FFE4FF4807183460020E689C4
:1050500002F0E3FF704348BFFF3006EB20261BFA47
:1050600086F600F00FFE301A0028C5DD81B200225E
:105070002046FFF76AFB0028F3D00DF117030293D7
:105080000DF11603019300220DF115030093114653
:1050900005AB2046FFF7A8FB0028E2D09DF81420BE
:1050A0009DF9173042450ED194F804C09DF81510B3
:1050B0008C4508D1002B08DA9DF81630AB42D0D1D0
:1050C00007B0BDE8F08F002BCBDBA1189DF81630A0
:1050D000497C9942C5D12046FFF769FFC1E700200E
:1050E000EEE70120ECE72DE9F04389B0CDE904219A
:1050F000DDE91098129F04461E46FFF71EFBDDE90E
:10510000042120B90025284609B0BDE8F0830DF13F
:105110001F0302930DF11E0301930DF11D03009374
:10512000204607ABFFF760FB05460028EAD09DF953
:105130001F30002BE6DB22799DF81D309A4206D104
:105140009DF81C209DF81E102046FFF730FF9DF8AB
:105150001C209DF81E301444617C9942D2D006B1C7
:105160003270B9F1000F03D09DF81D2089F800209E
:10517000B8F1000F01D088F8003017B19DF81F205A
:105180003A706374BFE7704710B504460430FFF708
:1051900005FB10B11E2384F8163110BD10B5024670
:1051A000002392F818418C4208D192F81A412CB190
:1051B00003EB430303F58C73184410BD01330A2B32
:1051C00002F10302EDD10020F7E737B50B78FF2B92
:1051D00005460C4606D019460192FFF7DFFF58B18D
:1051E0004378019A2146281DFFF7FAFE002814BFD4
:1051F0000020052003B030BD0220FBE710B501EB15
:1052000041030446C1F1090203F58C7003F21B113E
:1052100002EB42022144204403F000FF002384F803
:10522000353110BD38B50A46002300F58C7403EB08
:105230004305D9B2655D954203D1FFF7DFFF012039
:1052400038BD01330A2BF2D10020F9E70021FFF726
:10525000D5BFF8B516461F4604460D46002300F597
:105260008C7203EB4300115CA94205D1204480F805
:10527000196180F81A71F8BD01330A2BF1D10023AE
:1052800004F58D7203EB4300115C19B9204480F8DA
:105290001851ECE701330A2BF4D12046FFF7D6FF73
:1052A000204604F11E0390F81A212AB980F81851FB
:1052B00080F8196180F81A7103309842F3D1DAE767
:1052C00000F11E03002280F81A2103309842FAD11F
:1052D0007047000010B504460430FFF755FE054B3B
:1052E00023604FF48F732046A4F81631FFF7E8FFD0
:1052F000204610BDD8960D002DE9F34704464068BE
:1053000001911F4603689DF828A09B699DF82C9089
:105310001646984706F1050880451CD8104D01999E
:1053200085F801A00023AB7094F81531EB705A1C7E
:1053300084F81521681D32462F7085F8049003F01B
:105340006DFE23685B685FFA88F22946204602B04A
:10535000BDE8F0471847012002B0BDE8F08700BF64
:105360004EE4032013B59DF810400194047A009494
:10537000FFF7C2FF02B010BD2DE9F04F87B01F4606
:10538000FF238DF813300DF117030293DFF8D0904F
:105390000DF1160301930DF11503009304468846A1
:1053A000164605AB0DF1130249460430DDE910BA8B
:1053B000FFF799FE054608B9002538E023689DF8F7
:1053C00013201B6849462046984799F80030227AF6
:1053D0009A4201D0FF2B2ED117B1214B5B783B7045
:1053E000BBF1000F03D01E4B1B788BF80030BAF1D5
:1053F000000F03D01A4BDB788AF80030129B1BB1E8
:10540000174B129A1B791370139B1BB1144B139AF1
:105410009B7813709DF8133032781249053BDBB24C
:105420009A4288BF33703278404603F0F7FD284631
:1054300007B0BDE8F08F99F802305A1C89F80220B5
:1054400094F816219A42B7D994F81731002BB3D0AB
:1054500023689DF813205B68494620469847ABE7D0
:105460004EE4032053E4032010B50446006A0368A9
:10547000DB68984794F82400FF2802D0012103F04C
:1054800067F923682046DB6F9847642000F0A0FE90
:10549000012010BD90F82400002103F06AB990F8B3
:1054A0002400012103F065B970B504460D46164687
:1054B000FFF74EFA034B2360266284F824502046FF
:1054C00070BD00BFE8960D0038B50446006A036859
:1054D0001B6A0D469847236820469B6F9847206AB1
:1054E000036805F07F011B689847206A0368002164
:1054F0001B68984723680546DB6F20469847206A5B
:1055000003685B6A9847284638BD70B50446006A50
:1055100003681B6A16460D469847236820469B6F12
:105520009847206A036845F080011B689847054644
:10553000206A036831461B689847012000F09AFBF7
:1055400023682046DB6F9847206A03685B6A9847A8
:10555000284670BDF8B50446006A1E4603681B6AFB
:105560000F4615469847236820469B6F9847206A48
:10557000036807F07F011B6898472E440746B54231
:1055800007D0206A036800211B68984705F8010BC3
:10559000F5E723682046DB6F9847206A03685B6A5B
:1055A00098473846F8BDF8B50446006A1E460368B9
:1055B0001B6A0F4615469847236820469B6F9847FD
:1055C000206A036847F080011B6898472E4407460D
:1055D000B54206D0206A15F8011B03681B6898477E
:1055E000F6E723682046DB6F9847206A03685B6A0A
:1055F00098473846F8BD006A03689B6A184701203F
:105600007047FB207047704710B50379052B04469F
:1056100010D003680521D3F8803098470722012174
:105620002046FFF772FF802240212046FFF76DFFE2
:10563000052323712379052BFCD0207E10BD10B5E6
:105640004FF49871044603F0EBF8204610BD10B5F6
:105650000379012B04460BD003680121D3F8803075
:105660009847002201212046FFF74FFF01232371B5
:10567000012010BDF8B50368DB6804460F461546E7
:1056800098470646B0B187B17DB194F828302A78A2
:10569000033B9342DEBF94F82830043B2B702A78FA
:1056A00004F12D01384603F0B9FC002384F82831B9
:1056B00084F828303046F8BD38B5044615461A46F9
:1056C000FFF7F2FE094B2360FF22002384F8272016
:1056D000012284F8283184F82C3184F8265084F88B
:1056E0002B2184F82530204638BD00BF80970D005F
:1056F00090F82830032B1BD990F82930C37190F80B
:105700002A30037290F82B30437290F82C30837259
:10571000837933B9C37942799A4202D0C379FF2B96
:1057200006D1838A01339BB28382012380F828311A
:10573000704700000000000038B504462DED028BD4
:1057400010EE100AB0EE408A03F0D8F917A3D3E99F
:10575000002303F02BFA17A3D3E9002303F050FB37
:1057600003F036FC06210546C0F307422046FFF74A
:10577000CCFEC5F3072207212046FFF7C6FEEAB29A
:1057800008212046FFF7C1FEDFED077AB4EEE78A75
:10579000BDEC028BF1EE10FAACBF01230023012017
:1057A00084F8293138BD00BF00C042440000000029
:1057B00080842E410000000080844E4010B50379A3
:1057C000022B04460BD003680221D3F8803098479F
:1057D000012211462046FFF798FE0223237110BDD7
:1057E00070B512210446FFF76FFE1C2105462046C6
:1057F000FFF76AFEFF22064612212046FFF785FECC
:105800002379042B07D115F0A00F17D194F82B3171
:105810000BB1700612D52379042B01D1690622D46D
:105820002379032B01D12A0769D42379052B0ED1C3
:105830006B070CD505F00105257659E0638A013325
:105840009BB26382002384F8283184F82830FF2239
:1058500012212046FFF759FE2046FF22BDE8704086
:105860001221FFF752BE13212046FFF72DFE102113
:1058700005462046FFF728FE0D2102462046FFF789
:1058800044FE04F129022B4600212046FFF762FE68
:10589000192184F828502046FFF716FE40B2002850
:1058A000B8BF0330801084F82A011A212046FFF780
:1058B0000BFE94F92A3100B2002B2082A9BF238A63
:1058C000228A1BB21B01B2BF9B180F2293FBF2F37B
:1058D0001BB2238294F8293173B1238A9D3B1BB2FA
:1058E00023822046FFF704FF94F82831002BAED026
:1058F0002046FFF763FFAAE7238AA43BEFE7E38A8A
:1059000001339BB2E382F3E7024B186808B1FFF75B
:1059100067BF704750E50320024B586808B1FFF796
:105920005FBF704750E50320024B986808B1FFF74E
:1059300057BF704750E5032010B50379042B044688
:1059400010D003680421D3F8803098470522012144
:105950002046FFF7DAFD002240212046FFF7D5FD63
:105960000423237110BD10B50379032B044605D021
:10597000FFF7E2FF94F82801C0B210BD0020FCE759
:1059800010B50379032B044610D003680321D3F824
:1059900080309847032201212046FFF7B6FD4022C0
:1059A00011462046FFF7B1FD0323237110BDFB2AEA
:1059B000F8B504460F46154602D900263046F8BD14
:1059C00003681B6A98472046FFF7F8FE23682046C5
:1059D000DB6A984706460028EFD000220D212046BA
:1059E000FFF793FDE27A00212046FFF78EFD227B30
:1059F00000212046FFF789FD627B00212046FFF74A
:105A000084FDA27B00212046FFF77FFD2B463A460E
:105A100000212046FFF7C7FD2A1DD2B222212046D1
:105A2000FFF773FD2046FFF7ABFFC7E738B5054624
:105A30000C4680F8252072B181F3040242F0700216
:105A4000D2B20921FFF761FD04224D212846BDE8AD
:105A50003840FFF75ABD142910DC012910DD112947
:105A60000FDD07224D212846FFF74FFD033C64B2AE
:105A7000A21E62F07F02D2B20921E7E71424F0E708
:105A8000022404224D212846FFF73FFDF0E738B5F8
:105A90000C4605460A781D21FFF737FD62781E2166
:105AA0002846FFF732FDA27828462621BDE8384077
:105AB000FFF72BBD052913B50FD8094B01EB4101A9
:105AC0005C185A5AA378ADF8042001A98DF8063065
:105AD000FFF7DDFF012002B010BD0020FBE700BF93
:105AE00068970D0038B50A0A05460C462021FFF7D5
:105AF0000CFDE2B228462121BDE83840FFF705BD84
:105B000073B50446FFF7B0FC064618B900263046C8
:105B100002B070BD94F82650FF2D52D02946204681
:105B2000FFF769FD802201212046FFF7EEFC0A20E5
:105B300000F04EFB01212046FFF7C6FC8028E5D18E
:105B400094F82600FF281CD0002102F001FE94F8F2
:105B50002730FF2B07D1254A1378032BD6D8591CA1
:105B6000117084F8273094F82720214B43F8224005
:105B700052BB204900924FF0FF330122A8B200F03F
:105B8000CFFE00220E212046FFF7BFFC00220F218E
:105B90002046FFF7BAFC2046FFF710FE0021204602
:105BA000FFF788FF08212046FFF79CFF9FED120AB0
:105BB0002046FFF7C1FD00220D212046FFF736FFEA
:105BC000A5E74FF0FF35ADE7012A4FF0000304D100
:105BD00000930A494FF0FF33D0E7022A96D1009391
:105BE00007494FF0FF330122C8E700BF4DE503200E
:105BF00050E5032009590D000000D94319590D0043
:105C000029590D0008B5024B1B685B6C019308BD58
:105C10004802030008B5024B1B689B6C019308BD4A
:105C20004802030008B5024B1B68DB6C019308BDFA
:105C30004802030008B5024B1B685B6D019308BD69
:105C40004802030008B5024B1B685B6E019308BD58
:105C50003402030008B5024B1B68DB6E019308BDDC
:105C60003402030008B5024B1B685B68019308BD52
:105C70001802030008B5024B1B68DB68019308BDDE
:105C80001802030008B5024B1B685B69019308BD4D
:105C90001802030008B5024B1B689B6D019308BDF9
:105CA0001802030008B5024B1B685B6E019308BD28
:105CB0001802030008B5024B1B689B68019308BDDE
:105CC0002C02030008B5024B1B68DB68019308BD7A
:105CD0002C02030008B5024B1B681B69019308BD29
:105CE0002C02030008B5024B1B689B69019308BD99
:105CF0002C02030008B5024B1B68DB69019308BD49
:105D00002C02030008B5024B1B681B6A019308BDF7
:105D10002802030008B5024B1B685B6A019308BDAB
:105D20002802030008B5024B1B689B6A019308BD5B
:105D30002802030008B5024B1B68DB6A019308BD0B
:105D40002802030008B5024B1B681B6B019308BDBA
:105D50002802030008B5024B1B685B6B019308BD6A
:105D60002802030008B5024B1B681B6C019308BD99
:105D70002802030008B5024B1B685B69019308BD4C
:105D80006402030008B5024B1B689B68019308BDC1
:105D90006802030008B5024B1B68DB68019308BD6D
:105DA0006802030008B5024B1B681B68019308BD1D
:105DB0003002030008B5024B1B685B68019308BD05
:105DC0003002030008B5024B1B685B69019308BDF4
:105DD0003002030008B5024B1B68DB69019308BD64
:105DE0003002030008B5024B1B681B6A019308BD13
:105DF0003002030008B5024B1B685B6A019308BDC3
:105E00003002030008B5024B1B68DB6B019308BD31
:105E10003002030008B5024B1B681B6C019308BDE0
:105E20003002030008B5024B1B685B6C019308BD90
:105E30003002030008B5024B1B681B68019308BDC4
:105E40003C02030008B5024B1B689B68019308BD28
:105E50003C02030008B5024B1B68DB68019308BDD8
:105E60003C02030008B5024B1B681B69019308BD87
:105E70003C02030008B5024B1B685B69019308BD37
:105E80003C02030008B5024B1B689B69019308BDE7
:105E90003C02030008B5024B1B68DB69019308BD97
:105EA0003C02030008B5024B1B681B6A019308BD46
:105EB0003C02030008B5024B1B689B6A019308BDB6
:105EC0003C02030008B5024B1B68DB6A019308BD66
:105ED0003C02030008B5024B1B681B68019308BD18
:105EE0004C02030008B5024B1B685B68019308BDB8
:105EF0004C02030008B5024B1B689B68019308BD68
:105F00004C02030008B5024B1B681B69019308BDD6
:105F10004C02030008B5024B1B685B69019308BD86
:105F20004C02030008B5024B1B689B69019308BD36
:105F30004C02030008B5024B1B68DB69019308BDE6
:105F40004C02030008B5024B1B681B6A019308BD95
:105F50004C02030008B5024B1B685B6B019308BD44
:105F60006002030008B5024B1B685B6D019308BD1E
:105F70006002030008B5024B1B68DB6E019308BD8D
:105F80006002030008B5024B1B681B6F019308BD3C
:105F90006002030008B5034B1B68D3F898300193E7
:105FA00008BD00006002030008B5024B1B681B68B7
:105FB000019308BD2002030008B5024B1B685B6813
:105FC000019308BD2002030008B5024B1B685B6902
:105FD000019308BD2002030008B5024B1B68DB6A71
:105FE000019308BD2002030008B5024B1B68DB6C5F
:105FF000019308BD2002030008B5024B1B685B6DCE
:10600000019308BD2002030008B5024B1B689B6D7D
:10601000019308BD2002030008B5034B1B68D3F8A9
:106020008830019308BD00002002030008B5034B2F
:106030001B68D3F89430019308BD000020020300D0
:1060400008B5024B1B689B68019308BD440203001E
:1060500008B5024B1B685B69019308BD440203004D
:1060600008B5024B1B681B6A019308BD440203007C
:1060700008B5024B1B681B6B019308BD440203006B
:1060800008B5024B1B68DB6B019308BD440203009B
:1060900008B5024B1B685B68019308BD4002030012
:1060A00008B5024B1B689B68019308BD40020300C2
:1060B00008B5024B1B68DB68019308BD4002030072
:1060C00008B5024B1B681B69019308BD4002030021
:1060D00008B5024B1B685B69019308BD40020300D1
:1060E00008B5024B1B689B69019308BD4002030081
:1060F00008B5024B1B68DB69019308BD4002030031
:1061000008B5024B1B681B6A019308BD40020300DF
:1061100008B5024B1B681B6B019308BD40020300CE
:1061200008B5024B1B685B6B019308BD400203007E
:1061300008B5024B1B681B6C019308BD40020300AD
:1061400008B5024B1B685B6C019308BD400203005D
:1061500008B5024B1B681B68019308BD1C020300B5
:1061600008B5024B1B685B68019308BD1C02030065
:1061700008B5024B1B689B68019308BD1C02030015
:1061800008B5024B1B68DB69019308BD1C020300C4
:1061900008B5024B1B685B6A019308BD1C02030033
:1061A00008B5024B1B68DB6A019308BD1C020300A3
:1061B00008B5024B1B681B6B019308BD1C02030052
:1061C00008B5024B1B685B6C019308BD1C02030001
:1061D0000021FFF7F9BE10B5836804460BB902F041
:1061E00025FBC3689847A3681BB1032221462046BC
:1061F000984720461021BDE8104002F011BB0B6803
:10620000036013B15A6801325A6070470248002394
:106210000360FFF7F7BC00BF5CE503200022406885
:106220001146FFF74DBF002240681146FFF768BFD7
:10623000002240681146FFF773BF40680022FFF755
:1062400067BF4068002281F00101FFF751BF0023C2
:1062500040681A461946FFF743BF002340681A46B4
:106260001946FFF735BF002240681146FFF718BFF7
:10627000406800220221FFF71BBF002340681A4636
:10628000FFF706BF084B10B5282422461846002108
:1062900002F0ECFE054B04804FF0FF324260042216
:1062A0005A60034A1A6010BD68E5032060E50320C8
:1062B0000C980D0070470020704710B5102104465F
:1062C00002F0AEFA204610BD08B5FFF7F6FF08BD94
:1062D00010B58368044613B103220146984720464F
:1062E00010BD30B500224FF69C74026084808D880A
:1062F0008C800C68858004600A6030BD10B504464F
:106300000068FFF72DFF204610BD38B5C468F4B112
:106310002378022B03D104F10C00FFF7EFFF65682F
:1063200035B12846FFF7D4FF1021284602F078FA4D
:10633000A56835B12846FFF7CBFF1021284602F0AB
:106340006FFA20461421BDE8384002F069BA38BD22
:1063500073B50E46044656F8043B00930D4601A85B
:106360003146FFF74CFF019A009B6260236001A851
:10637000002301930093FDF7CBFF3046FDF7C8FFE4
:106380002846082102F04CFA204602B070BD13B531
:106390000B460246D0E900016C4684E8030093E80E
:1063A000030082E8030094E8030083E8030002B0DE
:1063B00010BD826810B50AB902F038FABDE8104085
:1063C000C368184708B5006800F11001FFF7F1FF36
:1063D00008BD826810B50AB902F028FABDE810407D
:1063E000C368184708B5006800F11001FFF7F1FF16
:1063F00008BD000038B500230446036010200D4698
:10640000FDF749FE28B10123C0E90133024B0360C7
:10641000C5602060204638BD48980D0038B500237F
:1064200083608B6804460D462BB102229847EB68C7
:10643000E360AB68A360204638BD0000F0B589B0CA
:1064400004686846FFF74DFF4FF00203D4E84F2F72
:10645000002A03D1C4E8413F0029F7D125D104F136
:106460000C0569462846FFF73CFFBFF35B8F01230D
:106470006370002004F10803BFF35B8F53E8006FE3
:1064800043E80002002AF9D1BFF35B8F6EB1FFF73A
:10649000ABFD78B129463046FFF78BFF3046FFF75A
:1064A00017FF1021304602F0BBF96846FFF726FFC0
:1064B00009B0F0BD314602A8FFF7B0FFE068B4F9BB
:1064C000105008B102F05CFE06901020ADF81C5090
:1064D000FDF7E1FD0546E8B1002787601820FDF7CC
:1064E000DAFD044688B10146876002A8FFF74FFF36
:1064F000049BA268A360059B049206A9E268E3607E
:1065000004F110000592FFF7ECFE084BEB60084B1E
:106510002C60AB6006A8FFF7F1FE02A8FFF7D8FEDB
:10652000002229460348FFF767FDB7E7C5630D0062
:106530005D660D00D7610D002DE9F0478AB0054674
:106540009DF848900C4617469846FFF781FD07AE28
:10655000824638BB4FF62E73059005A93046ADF83C
:106560001830FFF7BEFE1420FDF795FD044648B134
:10657000022303700123C0E901AA437031460C30A5
:10658000FFF7AFFE2846214640F8044BFFF732FFE5
:106590003046FFF7B3FE05A8FFF7B0FE28460AB065
:1065A000BDE8F0870C234FF0000A1420CDE908AABB
:1065B0000793FDF770FD014628B1C0E901AA80F8F4
:1065C00000A080F801A004A80391FFF713FF224B5D
:1065D00008930820FDF75FFD824628B1039B40F831
:1065E000043B04A9FFF70BFE00965FFA89F34246CD
:1065F00039462046CDF824A0FFF732FDB8B9039BF9
:106600005B7803F0FF0293B94FF69C7305A903A8CA
:106610000592ADF81830FFF711FF05A8FFF76EFEE1
:1066200005A80999FFF794FE06A8FDF771FE039BE4
:10663000059304A906A8FFF7E2FD059B069A2B60C7
:106640006A60002306A806930593FDF761FE04A87F
:10665000FDF75EFEA2E700BF21670D00022AF8B534
:10666000054607D0032A18D0012A01D10B68036020
:106670000020F8BD18200E68FDF70DFD044650B14E
:106680003146FFF7CBFE3069B6F9147008B102F05D
:1066900077FD2061A7822C60EAE70468002CE7D030
:1066A00004F11000FFF72AFE2046FFF711FE182123
:1066B000204602F0B5F8DBE738B5002383608B682D
:1066C00004460D462BB102229847EB68E360AB68A5
:1066D000A360204638BD022A70B5044607D0032ABD
:1066E00012D0012A01D10B680360002070BD142074
:1066F0000E68FDF7D0FC054620B13146FFF7DCFF00
:10670000337C2B742560F0E70468002CEDD0204624
:10671000FFF7DEFD1421204602F082F8E5E70000D5
:10672000F0B589B004460D4601A81146FFF710FEEA
:10673000A4B124B21DB1284602F022FD054601A8ED
:1067400003A90395ADF81040FFF778FE03A8FFF703
:10675000D5FD02A8FDF7DCFD09B0F0BD019D0123C8
:10676000D5E84F2F002A03D1C5E8413F0029F7D1D2
:10677000EFD12B73BFF35B8F6B702B1DBFF35B8F60
:1067800053E8006F43E80042002AF9D1BFF35B8F62
:10679000002EDED02046FFF727FC074660B105F14A
:1067A0000C013046FFF715FE3046FFF791FD102132
:1067B000304602F035F8CCE7314603A8FFF77CFFFE
:1067C0002B7B8DF81C301020FDF765FC0546D0B101
:1067D00087601420FDF75FFC044678B187600146AE
:1067E00003A8FFF7D4FD059BA268A360069B059252
:1067F000E268E3609DF81C3006922374064BEB6060
:10680000064B2C60AB6003A8FFF762FD002229460F
:106810000348FFF7F1FBC7E7E5630D00D7660D00FE
:10682000D7610D00002240681146FFF769BC0022C5
:1068300040681146FFF774BC40680022FFF768BC4F
:106840004068002281F00101FFF752BC002340683C
:106850001A461946FFF744BC002340681A461946F9
:10686000FFF736BC002240681146FFF729BC002222
:1068700040681146FFF714BC406800220221FFF770
:1068800017BC002340681A46FFF702BC024B0322E4
:106890005A60024A1A60704790E5032064980D0020
:1068A0007047F8B5064615460C468F18BC4206D010
:1068B000336814F8011B9B6830469847F6E7284672
:1068C000F8BD007C0022FFF71DBA007C0021FFF715
:1068D00021BA007C0021FFF725BA007C0021FFF7D8
:1068E00029BA007C0021FFF72DBA10B51421044607
:1068F00001F096FF204610BD10B54FF47A730446A0
:1069000008460021C4E90113034B2360207411469B
:10691000FFF728FA204610BDA0980D0000470000A0
:106920002DE9FF4100241D460F4690460646FFF71D
:10693000E1F9A5424FF00403ADF80D408DF80C309D
:106940008DF80F40A2BF9DF828308DF80E3003ACB3
:106950000749009443463A463046A8BF8DF80D508B
:10696000FFF7C0F9B0FA80F0400904B0BDE8F0814B
:106970001D690D00704710B51821044601F050FF45
:10698000204610BDF0B5037D062B8DB00E4600F1FC
:1069900004074FF0000412D000F1080515F8011D9E
:1069A0000A22304601F0DFFAAF42044419D0002C2D
:1069B000F4D02E21304601F0C7FA0444EEE72F232D
:1069C0006A4639460A208DF80040FFF7D3F9684639
:1069D00002F0F3FB33680246DB68694630469847AD
:1069E000044620460DB0F0BD10B5054B04461122FB
:1069F00040F8043B002102F039FB204610BD00BFE7
:106A0000C8980D000346074A10B543F8042B01F15E
:106A1000100251F8044B43F8044B9142F9D10A7823
:106A20001A7010BDC8980D0010B59DF8084044EAD2
:106A3000032343EA024242EA0161042341600375F1
:106A400010BD13B5CB7800938B784A780978FFF79F
:106A5000EBFF02B010BD00F11003012213F8101C6F
:106A60000129184608D153F8041C02EB4102013AEF
:106A700003F11003F2D17047022904BF53F8041C3C
:106A80005218F4E70EB4F0B588B000AF07F1340542
:106A9000102155F8042B7A6004462B467818FD60C7
:106AA000FFF776FB0F287A681AD900F1080323F064
:106AB00007036E46ADEB030D411C2B466846FD6097
:106AC000FFF766FB021E04DD236869469B682046CB
:106AD0009847B5462037BD46BDE8F04003B0704743
:106AE0000028F7D0236802469B6807F11001204672
:106AF0009847EFE710B5036804469B689847A3687A
:106B0000013BA3602BB923682046DB68BDE8104039
:106B1000184710BD07B503688DF807109B68012260
:106B20000DF10701984703B05DF804FB38B50B6819
:106B300003604D6843689D4204460CD015B16B68F4
:106B400001336B60606828B14368013B43600BB957
:106B5000FFF7D0FF6560204638BD0B461146002286
:106B600010B5C0E90022044683600BB9204610BD71
:106B7000FFF7DCFFFAE78368EBB11A78032A1AD82B
:106B8000DFE802F00417021B0520704702685B680B
:106B90005268D05C2D2812D0A0F13003092B0ED9F9
:106BA00074280ED066280CD0A0F16E0358425841CC
:106BB000704706207047002070470420704703206C
:106BC00070470220704710B50446FFF7D4FF022833
:106BD0000ED0C31EDBB2012B14D82268A368506804
:106BE0005B68BDE810400A220021184402F08EBB09
:106BF0002268A36852685B68D05CA0F174035842B5
:106C0000584110BD0020FCE738B50023C0E900332F
:106C100004460E48C4E90203A9B10B78032B06D041
:106C20008BB9136858684B68C35C6E2B07D0136828
:106C30004D6858688B6828445B1BA060E360114670
:106C40002046FFF773FF204638BD00BF37990D007F
:106C500038B500250B46C0E90055C0E90255C0E92A
:106C60000455044611464BB11A78012A06D103F1A6
:106C70001002DB6882604361FFF758FF204638BD91
:106C800010B54369044663B18068E060013B103091
:106C9000A0602061636113B1FFF7DDFEA0600120F9
:106CA00000E0184610BD10B57D210446FFF732FF05
:106CB00001232371204610BD08B50379012B02D0B2
:106CC000022B04D008BD2C21FFF724FFFAE73A215C
:106CD000FAE710B50446FFF7EFFF20467B21FFF7E8
:106CE00019FF00232371204610BD000013B5044690
:106CF0000191FFF7E1FF2368019ADB680349204611
:106D0000984701232046237102B010BD6A940D00FC
:106D100013B504460191FFF7CFFF2368019ADB68A2
:106D200003492046984701232046237102B010BD35
:106D3000D4980D002DE9F0410D4617462221DFF8C9
:106D4000A08004462F44FFF7E5FE2946BD422A46AF
:106D500038D015F8016B222E03D05C2E01D01F2EE7
:106D6000F4D82368521A9B68204698475C21204635
:106D7000FFF7D0FE0D2E0AD8072E1CD9A6F1080366
:106D8000052B18D8DFE803F00D0F11171315222E6D
:106D900001D05C2E0FD131462046FFF7BBFE2946BD
:106DA000D4E76221F8E77421F6E76E21F4E7662163
:106DB000F2E77221F0E723683246DB68414620465D
:106DC0009847ECE78D4204D023686A1A9B682046F6
:106DD000984722212046FFF79DFEBDE8F08100BFC5
:106DE000D7980D0013B50446CDE90021FFF764FFE5
:106DF0002046DDE90021FFF79DFF02232046237195
:106E000002B010BD13B50446CDE90021FFF754FFD1
:106E10002046DDE90021FFF78DFF01232046237185
:106E200002B010BD80680368DB68184770470846E9
:106E300011B10B685B68184770477047704770471F
:106E4000704738B504460D4600682E2102F07BF9E4
:106E50002368C31A2B6023B1037803B10130236880
:106E60002060184638BD10B50C21044601F0D8FC4E
:106E7000204610BD10B50421044601F0D1FC204687
:106E800010BD10B50421044601F0CAFC204610BD17
:106E900008B502F062F9B0FA80F0400908BD704709
:106EA00010B50C4601F054FB844210D001F0C8FA32
:106EB000844205D101F0C4FABDE8104001F0BDBA2A
:106EC0002CB1236820465B68BDE81040184710BD10
:106ED00013B504460846019102F06FF90199024684
:106EE000204602B0BDE81040FFF78CBF13B5044642
:106EF0000846019102F061F923680199DB680246B6
:106F0000204602B0BDE81040184707B503688DF869
:106F10000710DB6801220DF10701984703B05DF807
:106F200004FB0EB403B503AB002153F8042B006A35
:106F3000019301F036F802B05DF804EB03B070473E
:106F40002DE9F74FD0E900954FF0140808FB05F53F
:106F50000093AB10184D17465D434C46002D23DDC2
:106F60006E1008FB06F004EB000A3A46BAF804B0CB
:106F7000205801915F4528BF5A4602F026F9019931
:106F8000012378B95F4503D1009A13703546E5E7D0
:106F90008CBF012000200028F8D0AE1B0AF1140499
:106FA000013EF3E7C00FF6E7A4EB09040248A41082
:106FB000604303B0BDE8F08FCDCCCCCC7FB5036986
:106FC000067E01910BB301B3002500F10C0403957B
:106FD00003A901A8FFF735FF0146B0B10DF10B037E
:106FE000039A8DF80B502046FFF7AAFF9DF80B304F
:106FF0005BB12468142303FB004000F10804B0F9DE
:107000000630002BA8BFDEB2E2E7304604B070BD08
:1070100010B5094C2378BFF35B8FDB0709D42046FA
:10702000FDF74AF828B12046FDF74BF8034801F078
:10703000EFFF034810BD00BF9CE503203B6E0D0031
:10704000F8DE032010B5094C2378BFF35B8FDB0714
:1070500009D42046FDF730F828B12046FDF731F875
:10706000034801F0D5FF034810BD00BFA0E5032091
:107070009F6E0D00FCDE032038B500250446C0E9F4
:107080000055C0E904558560856140F8245FFEF72E
:10709000B9FDFFF7BDFFE061FFF7D4FF2573206264
:1070A000204638BD10B50A4C2378BFF35B8FDB0751
:1070B0000CD42046FDF700F840B10648FFF7DCFF8E
:1070C0002046FCF7FEFF044801F0A2FF014810BD76
:1070D00098E50320A8E5032085750D00024A0349C1
:1070E00003480023FEF74EBF0D740D0099730D0089
:1070F00019730D0000231A4619461846FEF742BFC1
:1071000037B50D6951F8043B0093044601A8FFF719
:1071100076F86A4629462046FFF71FFD01A8FDF7CD
:10712000F7F8204603B030BD37B58D6851F8043B01
:107130000093044601A8FFF762F86A4629462046F4
:10714000FFF786FD01A8FDF7E3F8204603B030BD48
:1071500037B5CD6851F8043B0093044601A8FFF70A
:107160004EF86A4629462046FFF74EFD01A8FDF776
:10717000CFF8204603B030BD70B58AB00D46014649
:1071800004A8FFF7D1FF144E04A8FFF779FDE8B17A
:1071900004A96846FFF7DCFF02983146FFF778FE46
:1071A000044610B12C1E18BF012401A8FDF7B0F849
:1071B000002CE9D004A96846FFF7A2FF6846FFF754
:1071C00002FD286001A8FDF7A3F8DDE705A8FDF79B
:1071D0009FF80AB070BD00BFDD980D0037B50C46B2
:1071E00020461249154601F0B8FF48B901F0B0F940
:1071F0004FF4165101F09CF901F0AAF903B030BD2B
:107200000B49204601F0A9FF70B94FF4165301A9AC
:1072100028460193FFF7B0FF01F012F9019901F040
:1072200009F901F00DF9E9E70020E7E7E2980D0020
:10723000E9980D0070B5D0E900531426044606FB0A
:107240000356AE4205D005F10800FFF7F3FF1435F1
:10725000F7E72068FEF784FF204670BD70B5D0E9DF
:107260000053044605EB0316AE4204D0284600F056
:10727000A5FF1035F8E72068FEF772FF204670BDC5
:1072800010B504460C30FFF7D5FF2046FFF7E6FFA8
:10729000204610BD10B5044B044640F8043BFFF7F0
:1072A000EFFF204610BD00BF50950D0010B50446FD
:1072B000FFF7F0FF2046242101F0B2FA204610BD6E
:1072C00010B5034B03600446FFF7E4FF204610BDF2
:1072D00088990D0010B50446FFF7F2FF20462421DF
:1072E00001F09EFA204610BD0022C0E9002210B530
:1072F00082600C6804604C6844608C680A604A6074
:1073000084608A6010BD10B5036804461868FEF7F3
:1073100091FC204610BD00002DE9F04F87B080465B
:1073200003931C4B5B68C3F30803894616466BB98D
:10733000FFF7B8FE044600F12403406A0593FEF708
:1073400071FC237B2BB105A8FFF7DDFF07B0BDE87B
:10735000F08F01232373D4E900535FFA89F905EB19
:10736000830AAA4512D055F8047B3146381DFFF731
:1073700025FE8145F5D33B68039A0092D3F808B007
:107380004A46334641463846D847EAE70023237346
:10739000D9E700BF00ED00E02DE9F74F9B461A4BFF
:1073A0005B68C3F308038046894616466BB9FFF74E
:1073B00079FE044600F12403406A0193FEF732FC93
:1073C000237B2BB101A8FFF79EFF03B0BDE8F08F30
:1073D00001232373D4E90053F6B205EB830A554524
:1073E0000ED055F8047B5946381DFFF7E7FD86425D
:1073F000F5D33B684A46DB68414638469847EEE796
:1074000000232373DEE700BF00ED00E02DE9F34128
:10741000164B5B68C3F3080305460F461BBBFFF71B
:1074200041FE00F124030446406A0193FEF7FAFB93
:10743000D4E90063462406EB8308B04509D101A8CE
:10744000FFF761FFA542B4BF0020012002B0BDE8F4
:10745000F08156F8040B39460430FFF7AFFD844243
:10746000A8BF0446E9E70020F0E700BF00ED00E018
:1074700070B50446D0E900020B4600EB820282425E
:1074800007D001461D6851F8046BAE4203D0084690
:10749000F5E7002070BD521A01F0CEFD6368013B94
:1074A00063600120F6E71FB500F124030446406A3B
:1074B00001910393FEF7B6FB01A92046FFF7D8FF21
:1074C00018B163680BB9FFF715FE03A8FFF71BFFA0
:1074D00004B010BD70B5D0E904561823044603FB70
:1074E0000656AE4215D005F110012046FFF7C0FF49
:1074F00063680BB9FFF7FEFDE06929690368DB6883
:107500009847696919B1206A0368DB68984718359C
:10751000E7E7D4E90453182606FB0356AE4204D02D
:10752000284600F04BFE1835F8E70023636170BD74
:1075300073B50446FFF7DEFD04F12403606A01938E
:10754000FEF770FB2046FFF7C5FF01A8FFF7DBFE43
:10755000606A08B1FEF75EFBD4E90453182606FB07
:107560000356AE4204D0284600F028FE1835F8E74E
:107570002069FEF7F5FD2068FEF7F2FD204602B017
:1075800070BD00000148FFF7D3BF00BFA8E503208E
:107590008842F8B506460C46154627D9904226D2B1
:1075A000A2F114056C1AA1F1140704440026AF429D
:1075B0003DD0A4B12B682360AB88A380B5F9063019
:1075C000E380C4E902662661AB68A360AE60E3684D
:1075D000EA68E260EB6023692A6922612B6105F1A8
:1075E0000800FFF727FE143D143CE0E71FD00027FA
:1075F000AC421CD0A6B123683360A388B380B4F931
:107600000630F380C6E902773761A368B360A760EC
:10761000F368E268F260E3603369226932612361F2
:1076200004F10800FFF706FE14341436E0E7F8BD55
:10763000F8B5D0E901539D4204460E4617460DDBCE
:107640000135002D006804DDA900FEF791FD18B991
:10765000F8BDFEF785FD00202060A5602568626802
:1076600005EB86019200A2EB8602081D01F0E4FC06
:1076700045F826706368013363600120E8E737B599
:1076800000F124030446406A01930D46FEF7CAFA4E
:10769000D4E9003103EB810083421A460BD0126813
:1076A000AA4203F10403F7D101A8FFF72CFE00253D
:1076B000284603B030BD2A462046FFF7B9FF0546ED
:1076C0000028F1D06368012B01D1FFF707FD01A865
:1076D000FFF719FEECE78842F8B504460D4616465A
:1076E00014D9904213D2A2F11006751AA1F1100715
:1076F0002C44B74218D01CB13146204600F0C6FDDC
:10770000304600F05BFD103E103CF2E70CD0B54275
:107710000AD01CB12946204600F0B8FD284600F0EA
:107720004DFD10351034F2E7F8BD70B50E1E05465C
:1077300011DD3001FEF70CFD044658B1D5E9001209
:1077400001EB0212FFF7C7FF2868FEF709FD2C6066
:10775000AE60012070BD0024F6E72DE9F04F9146A0
:1077600097B000230391D9F804100C934622994254
:10777000C0E90033C0E90233C0E90433CDE90A337C
:107780000446027623DCD9E90057142303FB07578C
:10779000AF423BD029460DA800F078FD0DA911A8F5
:1077A0000B9E00F073FDDDE90B1399421BDA0A9B77
:1077B0000B9A03EB061603EB0212314606F110009A
:1077C000FFF789FFEEB90B9B01330B9311E00AA879
:1077D000FFF7ABFF0028D6D10AA8FFF73FFD2046F0
:1077E00017B0BDE8F08F01310AA8FFF79EFF00280F
:1077F000DDD111A800F0E2FC0DA800F0DFFC14358B
:10780000C6E711A9304600F041FDDCE70026CDE9CE
:107810000D660F9637464FF0140ADDE90A239E42A3
:1078200080F297803301D35808930BB90136F4E7FF
:107830000AFB06F3099702930DAD09A908A8FFF703
:1078400000FB83460028F1D00146099A8DF81F708D
:107850000DF11F032846FFF773FB9DF81F80019071
:10786000B8F1000F66D1BDF82430ADF84830CDE94D
:1078700013884FF6FF73CDF844B0ADF84A30CDF819
:107880005480D5E9013293421ADB03F1010BBBF1BD
:10789000000F4ADD0AFB0BF0FEF75AFC04900028AB
:1078A00045D0D5E900120AFB0212FFF771FE049BD6
:1078B00028680493FEF754FC049B2B60C5F808B0BD
:1078C000019BD5F800B06A680AFB03F30BEB0301D8
:1078D00001F114000AFB02B204910593FFF758FE70
:1078E0000499A9B1059B119A4BF80320BDF84830C3
:1078F0008B80BDF94A30CB80C1E902770F61139BC1
:107900008B60149B1397CB60159B14970B61159795
:107910006B6801336B6013A8FFF78CFCB8F1000FA4
:1079200008D00DA8FFF786FC56E74346C0E74FF0A6
:107930000108F0E7019B2D680AFB0355089B1B78A3
:107940002BB9D9F80030029A13441B7CEB80083520
:1079500073E72168226062686360A3680B920C9AE7
:107960000C93E368A2600D9A0D932369E2600E9A6E
:107970000E93636922610F9A0F93039B0A916261D0
:107980002376CEE77FB50546094B45F8043B044610
:107990000E4601A81146FCF728FE01AA31462846EA
:1079A000FFF7DBFE01A8FCF7DFFD204604B070BD49
:1079B00050950D00F0B50F4687B026490C9C38460F
:1079C00016461D4601F0C9FB00BBE4B129466846D6
:1079D000FFF78AFC2049242000F024FF054670B1FF
:1079E000694603A8FCF701FE03AA31462846FFF7C3
:1079F000C9FF03A8FCF7B8FD184B2C622B60684642
:107A0000FCF7B2FD2C46204607B0F0BD14493846BD
:107A100001F0A3FBE0B9002CF5D029466846FFF73A
:107A200063FC0D49242000F0FDFE05460028E6D049
:107A3000694603A8FCF7D9FD03AA31462846FFF79B
:107A4000A1FF03A8FCF790FD064B2B602C62D6E744
:107A50000024D8E7F1980D00889A0D0088990D0050
:107A6000F5980D0070990D00014B024A1A6070479D
:107A7000A4E5032006990D002DE9F047089DD0F8F4
:107A8000209004460E461746984600F061FD814559
:107A90004CD02B79190704D56A6954492046FFF761
:107AA00040FAB8F1000F0DD05B212046FFF72DFA08
:107AB00041462046FFF71AFA23684D49DB68022247
:107AC000204698472B79DA0723D5D5F808802F214F
:107AD000404601F08CFB08B100F101084146204608
:107AE000FFF704FA2B799B0708D53A212046FFF7C8
:107AF0000CFAEA683F492046FFF713FA2A7923680F
:107B000012F0040FDB6814BF3B493C4902222046B7
:107B100098472B7958071DD529690B461A4613F843
:107B2000010B60B1202808D11946F7E7344800F06E
:107B300066F90028ADD0BDE8F0872828EED123688B
:107B4000521ADB682046984723682E49DB680422D6
:107B50002046984700213846FEF70CFA0146204699
:107B6000FFF7C4F923682549DB68022220469847BD
:107B70001EB131462046FFF7B9F92B7913F0300FCB
:107B80002CD023682049DB680222204698472B79B5
:107B9000D9060AD523681D49DB6807222046984785
:107BA000AA691B492046FFF7BCF92B799A0611D523
:107BB000DB0605D523681049DB680222204698477A
:107BC00023681449DB6820460A229847E969204661
:107BD000FFF78CF95D212046FFF797F923680E49DE
:107BE000DB6820460222BDE8F04718470A990D00DD
:107BF00011990D006A940D0014990D0019990D004A
:107C0000D0E5032017990D001C990D001F990D0058
:107C100027990D002A990D0035990D002DE9F043A3
:107C200085B0D0F820900C9C05460F4690461E4625
:107C300000F08EFC814505D1494800F0E0F80028AD
:107C400040F08A802B6A474A01924FF0000901A850
:107C500003938DF80890FFF73CF849464046FEF73D
:107C600089F941498046012201A8FFF7BBF8414646
:107C7000FFF72EF93FB13D49012201A8FFF7B2F805
:107C80003946FFF725F93EB13949012201A8FFF72E
:107C9000A9F83146FFF71CF92379DF070ED5A6684E
:107CA0002F21304601F0A3FA00B1461C31490122D0
:107CB00001A8FFF797F83146FFF70AF923799E07E5
:107CC00007D52D49022201A8FFF78CF8E168FFF7DC
:107CD0000DF82379580714D5266933461F4613F843
:107CE000012B2AB1202A01D11E46F7E7282AF5D117
:107CF0002249022201A8FFF775F8BA1B3146FFF7A7
:107D000081F82379190707D51D49012201A8FFF73A
:107D100069F86169FEF7FCFF2379DA0608D50422C9
:107D200018490DEB0200FFF75DF8A169FEF7DEFFD1
:107D300023799B0607D51449062201A8FFF752F8BC
:107D4000E169FFF7C5F801A8FEF7ADFF286A0F4902
:107D500003680222DB68984705B0BDE8F08300BFE6
:107D6000D0E5032058990D00E7980D0038990D00D3
:107D70003A990D002B940D003C990D003F990D0090
:107D800042990D0044990D0049990D0035990D0057
:107D9000002340681A46FEF77BB9406800220221A2
:107DA000FEF786B9002240681146FEF779B9002235
:107DB00040681146FEF784B9002340681A46194608
:107DC000FEF786B9002340681A461946FEF788B9BF
:107DD00040680021FEF7ACB940680021FEF7B0B959
:107DE0004068002281F00101FEF782B9406800225C
:107DF000FEF78EB9002240681146FEF791B90022C5
:107E000040681146FEF77CB92DE9F043002495B097
:107E100016460D460746FEF7E7FD214618220EA836
:107E2000009401F023F94023CDE90C3421466B4640
:107E30000CAA3046FDF7AEFF0446002846D10246A4
:107E400001216868FEF73CF90221804622466868F5
:107E5000FEF736F9009E81462146002E36D00029D5
:107E600034D17368022B03D00A2B0BD0F669F4E7E8
:107E7000B8F1000F04D0716938460431FEF7E1FD16
:107E80004146F3E7B9F1000F01D14946EEE77469C5
:107E9000102201A801F0EAF806238DF8143001AD94
:107EA00004F108031834186859682A4603C20833D5
:107EB000A3421546F7D101A906A807ADFEF7A2FD1A
:107EC0000FCD3C1D0FC42B682370DEE70098FDF733
:107ED00059FF384615B0BDE8F0830000024B034A55
:107EE0001A6000225A607047D0E50320D0990D0037
:107EF000F8B506460D468F180024BD420CD03368F5
:107F000015F8011B9B6830469847031E01DB1C4493
:107F1000F3E7002C08BF1C462046F8BD13B5044605
:107F2000084659B1019101F048F923680199DB68CD
:107F30000246204602B0BDE81040184702B010BD0E
:107F400008B5FFF7EBFF08BD03689B68184738B515
:107F50000D210546FFF7F8FF0A2104462846FFF7E2
:107F6000F3FF204438BD30B58BB000238DF82430AA
:107F7000012A98BF0A2209AC0D46B1FBF2F101FBC0
:107F8000125303F0FF03092B94BF30333733DBB2B6
:107F9000AA4204F8013DEFD92146FFF7BFFF0BB01D
:107FA00030BD2DE9F04186B000AF05460E46381DC4
:107FB000142114463B60FEF7EBF813280ED8391D48
:107FC0002846FFF7ABFF04461EB12846FFF7BFFF68
:107FD000044420461837BD46BDE8F08100F108038F
:107FE00023F00703E846ADEB030D2246411C3B6836
:107FF0006846FEF7CDF869462846FFF78FFF04462E
:10800000C546E1E710B5044628B101F05BF890FBE6
:10801000F4F303FB1404204610BD884210B5044657
:1080200003DA081AFFF7EEFF0444204610BD0000F3
:10803000014B00229A607047D8E503200021FDF72C
:10804000E9BE0021FDF7EEBE10B5044608462170DA
:10805000FDF7C0FE00236360204610BD10B5044646
:108060000078FFF7EBFF48B920784FF6FF71FDF776
:1080700099FE2078BDE81040FFF7E3BF10BD10B5B2
:1080800004460078FFF7DAFF38B92078FDF792FE52
:108090002078BDE81040FFF7D4BF10BD0078FFF78F
:1080A000D0BF0000400830B518600024186888422E
:1080B000E5B206D90134082C02D040081860F5E773
:1080C0000725024B5B5D137030BD00BF049A0D00A5
:1080D0002DE9F04306468FB000780C46FFF7AEFF5F
:1080E00000281BDB35781422002109A800F0BEFF10
:1080F0000B23002209A92846ADF82430FDF77AFEAB
:108100009DF82D3013B19DF82C5055B10027B9467C
:10811000B846012523795DB1C3B100200FB0BDE899
:10812000F083DDF830809DF834909DF83570F1E7EC
:10813000002B35D1A368434508D18DF820908DF8E8
:108140002170BDF82020A3899A42E6D00023A168BF
:108150008DF80F300A9804AB0DF10F02FFF7A2FF64
:10816000217985B989B9A36843450ED38DF820904C
:108170008DF82170BDF82020A3899A4205D1049B77
:10818000434502D1C9E70029F9D100230193637B5C
:1081900000939DF80F20237B3078FDF733FEBCE77A
:1081A000CDE900552B462A460121F5E708B50078B0
:1081B000FDF708FEC0B208BD7047704710B5044611
:1081C0000068FDF7CDFF204610BD10B504460068DD
:1081D00008B1FDF7C5FF0023C4E90133236010BDDA
:1081E00038B504460D4600680131FDF7C1FF10B1F6
:1081F000C4E90005012038BD10B50368044623B169
:1082000043688B4201D3012010BD2046FFF7E8FFF1
:108210000028F9D0A368002BF5D122681370F2E78B
:1082200037B50D46114601920446FFF7E5FF019A66
:1082300028B92046FFF7C9FF204603B030BDA26031
:108240002946206800F0EAFE2268A3680021D15484
:10825000F2E738B5054600680C4668B16A688B6875
:108260009A4207D3096800F082FFA368AB6000233D
:10827000A36038BDFDF774FF23682B6063686B60F3
:10828000A368AB600023C4E90033F1E710B5002315
:10829000C0E90033044683600373FFF7DAFF20462A
:1082A00010BD884210B5044605D00B682BB18A6812
:1082B0001946FFF7B5FF204610BDFFF786FFFAE726
:1082C00010B500230446C0E9003383600373FFF751
:1082D000E8FF204610BD0000054B02221A60054B46
:1082E000054A9A600020186098809871FDF764BE76
:1082F000F4E50320E8E503200000FFFF08B50020B7
:10830000FDF7B6FE28B1FDF7A3FE80F00100C0B274
:1083100008BD0120FCE710B50020FDF7BBFC0446BA
:10832000A0B9FDF741FE012810D12046FDF76CFEF3
:1083300060B9FFF7E3FF10B9FDF782FEF9E7FFF739
:10834000DDFFBDE810400020FDF7A4BC204610BDB5
:108350001FB5FFF7E0FF10220021684600F086FEFF
:1083600000216846FDF79EFC009805B05DF804FB0F
:10837000024B1A68024B1A60704700BF00DF0320EF
:10838000F8E50320704741747047704708B5007CDA
:10839000FDF790FD20EAE07008BD08B5007CFDF710
:1083A00061FD20EAE07008BD08B5007CFDF76AFDBC
:1083B00040EAE07008BD08B5007CFDF75BFD40EACF
:1083C000E07008BD007CFDF765BD37B5457C04460F
:1083D0002DB1207C03B0BDE83040FDF73BBD007CF3
:1083E0000191FDF767FD00280199F2DC284603B0F2
:1083F00030BD10B51421044600F012FA204610BD1D
:1084000010B54FF0000C0446084611464FF47A723E
:10841000C4E901C2044A22600122207462741A462F
:10842000FDF708FD204610BD309A0D00007C0023AA
:10843000FDF748BD0022FFF7F9BF007CFDF702BD44
:1084400013B50D4C2178BFF35B8F11F0010110D1F2
:1084500020460191FBF730FE019950B1074B084AC5
:108460000848FFF7CDFF2046FBF72BFE064800F03B
:10847000CFFD044802B010BDFCE5032084E60320D4
:1084800000E6032008E703208B830D00417470474A
:108490007047704708B50021007CFDF743FD40EAB6
:1084A000E07008BD08B50121007CFDF73BFD40EA06
:1084B000E07008BD08B5007CFDF72CFD20EAE070F7
:1084C00008BD08B5007CFDF71DFD20EAE07008BD81
:1084D00013B50446007C0191FDF71CFD00280199AD
:1084E00001DC607C20B1207CFDF724FD20EAE070F7
:1084F00002B010BD007CFDF725BD10B51421044667
:1085000000F08EF9204610BD10B54FF47A73044682
:1085100008460021C4E90113044B236001232074A1
:1085200063741146FDF7D6FC204610BD609A0D001D
:10853000007C0022FDF7D6BC007CFDF7DBBC10B54B
:1085400014220446002100F091FD204610BD0000D9
:1085500010B50F4C88B003A8FFF7F1FF2178BFF3E7
:108560005B8F11F001010FD120460191FBF7A4FDB3
:10857000019948B103AA0748FFF7C6FF2046FBF759
:10858000A0FD054800F044FD024808B010BD00BF42
:108590001CE7032020E7032091840D00014B1860A5
:1085A000704700BF04DF032008B50B4B43B1FFF752
:1085B000CFFF03681B699847002801DDAFF30080F7
:1085C000064B43B1FFF73CFF03681B69984700283F
:1085D00001DDAFF3008008BD0000000000000000D6
:1085E00008B5FFF7E1FFFDF74DFB014B186008BD33
:1085F0003CE703200548064A064908B5121A00F070
:108600000DFD054B054A1A6008BD00BF00F40320AC
:1086100008F40320C09B0D0004F403201E1C279ABD
:1086200007B5002300931A466FF07701FDF7FEFCB3
:1086300003B05DF804FB000007B543880A2B08D09F
:10864000502B0BD1094B1B684BB103B05DF804EB09
:108650001847FFF7E5FF03B05DF804FB0023009324
:108660001A466FF07701FDF7E1FCF4E738E70320E5
:1086700010B512480021FDF7A3FD114B1A68114BEC
:108680009A42114B0CBF012200221A7001D0FFF751
:10869000B1FFFDF7E7FA044600F0F0FC0B4B13B115
:1086A0002046AFF3008000210848FDF7E9FCBDE853
:1086B000104007480021FDF7AFBC00BF9D850D00AD
:1086C00004F403201E1C279A34E703200000000056
:1086D00039860D00232813B502D9002002B010BD41
:1086E000A0F10B03022B1AD8174C2178BFF35B8F34
:1086F00011F001010BD120460191FBF7DDFC01993E
:1087000028B11248FFF7A0FC2046FBF7DAFC0F4B1C
:108710001878FDF767FB0028DFD10120DEE701288C
:1087200009D800F059F80021007CFDF713FB80F018
:108730000100C0B2D2E709380128EED8FFF780FE69
:10874000007CFDF7AFFBF2E730E3032034E30320C6
:10875000232838B504460D460AD8FF2908D0FFF76C
:10876000B9FF28B129462046BDE83840FDF7A2BA36
:1087700038BD38B504460D46FDF7A4FAFF2810D0E1
:10878000062804D84D2323FA00F0C30709D4204655
:10879000FFF7A0FF28B129462046BDE83840FDF785
:1087A00099BA38BD7047000038B5002320254380B2
:1087B000142304460380856005610649284600F0BD
:1087C00033F804496060284600F02EF8E060204647
:1087D00038BD00BF889A0D0030B50E4D2978BFF323
:1087E0005B8F11F0010487B011D12846FBF764FCC0
:1087F00068B101A8FFF7D8FF01AA21460648FEF795
:108800007BF82846FBF75DFC044800F001FC0248B9
:1088100007B030BD40E7032044E70320A5870D00E3
:10882000FBF73DBCFBF737BCFBF737BC08B5FDF7E2
:10883000B7FC000081F0004102E000BF83F000437C
:1088400030B54FEA41044FEA430594EA050F08BFEB
:1088500090EA020F1FBF54EA000C55EA020C7FEAAF
:10886000645C7FEA655C00F0E2804FEA5454D4EB2C
:108870005555B8BF6D420CDD2C4480EA020281EAF6
:10888000030382EA000083EA010180EA020281EA2E
:108890000303362D88BF30BD11F0004F4FEA013180
:1088A0004FF4801C4CEA113102D0404261EB41018F
:1088B00013F0004F4FEA03334CEA133302D0524215
:1088C00063EB430394EA050F00F0A780A4F10104D1
:1088D000D5F1200E0DDB02FA0EFC22FA05F280180B
:1088E00041F1000103FA0EF2801843FA05F35941F1
:1088F0000EE0A5F120050EF1200E012A03FA0EFC70
:1089000028BF4CF0020C43FA05F3C01851EBE37199
:1089100001F0004507D54FF0000EDCF1000C7EEBB6
:1089200000006EEB0101B1F5801F1BD3B1F5001FF4
:108930000CD349085FEA30004FEA3C0C04F1010413
:108940004FEA445212F5800F80F09A80BCF1004F3C
:1089500008BF5FEA500C50F1000041EB045141EABE
:10896000050130BD5FEA4C0C404141EB0101013C87
:1089700028BFB1F5801FE9D291F0000F04BF014676
:108980000020B1FA81F308BF2033A3F10B03B3F148
:1089900020020CDA0C3208DD02F1140CC2F10C02D8
:1089A00001FA0CF021FA02F10CE002F11402D8BF36
:1089B000C2F1200C01FA02F120FA0CFCDCBF41EA02
:1089C0000C019040E41AA2BF01EB0451294330BDD1
:1089D0006FEA04041F3C1CDA0C340EDC04F11404AE
:1089E000C4F1200220FA04F001FA02F340EA030085
:1089F00021FA04F345EA030130BDC4F10C04C4F1CB
:108A0000200220FA02F001FA04F340EA03002946AA
:108A100030BD21FA04F0294630BD94F0000F83F4F4
:108A2000801306BF81F480110134013D4EE77FEAD7
:108A3000645C18BF7FEA655C29D094EA050F08BF23
:108A400090EA020F05D054EA000C04BF1946104604
:108A500030BD91EA030F1EBF0021002030BD5FEA48
:108A6000545C05D14000494128BF41F0004130BD70
:108A700014F580043CBF01F5801130BD01F00045C4
:108A800045F0FE4141F470014FF0000030BD7FEA37
:108A9000645C1ABF194610467FEA655C1CBF0B4632
:108AA000024650EA013406BF52EA033591EA030F49
:108AB00041F4002130BD00BF90F0000F04BF002141
:108AC000704730B54FF4806404F132044FF0000574
:108AD0004FF0000150E700BF90F0000F04BF0021ED
:108AE000704730B54FF4806404F1320410F0004553
:108AF00048BF40424FF000013EE700BF42004FEA4E
:108B0000E2014FEA31014FEA02701FBF12F07F43CA
:108B100093F07F4F81F06051704732F07F4208BF81
:108B2000704793F07F4F04BF41F40021704730B588
:108B30004FF4607401F0004521F000411CE700BFD4
:108B400050EA010208BF704730B54FF000050AE057
:108B500050EA010208BF704730B511F0004502D558
:108B6000404261EB41014FF4806404F132045FEA5A
:108B7000915C3FF4D8AE4FF003025FEADC0C18BF03
:108B800003325FEADC0C18BF033202EBDC02C2F1F5
:108B9000200300FA03FC20FA02F001FA03FE40EA87
:108BA0000E0021FA02F11444BDE600BF70B54FF08B
:108BB000FF0C4CF4E06C1CEA11541DBF1CEA135569
:108BC00094EA0C0F95EA0C0F00F0DEF82C4481EAD1
:108BD000030621EA4C5123EA4C5350EA013518BFF1
:108BE00052EA033541F4801143F4801338D0A0FBDE
:108BF00002CE4FF00005E1FB02E506F00042E0FB8B
:108C000003E54FF00006E1FB03569CF0000F18BF90
:108C10004EF0010EA4F1FF04B6F5007F64F5407438
:108C200004D25FEA4E0E6D4146EB060642EAC621CB
:108C300041EA55514FEAC52040EA5E504FEACE2E38
:108C4000B4F1FD0C88BFBCF5E06F1ED8BEF1004F3B
:108C500008BF5FEA500E50F1000041EB045170BDB7
:108C600006F0004646EA010140EA020081EA0301FB
:108C7000B4EB5C04C2BFD4EB0C0541EA045170BDF7
:108C800041F480114FF0000E013C00F3AB8014F171
:108C9000360FDEBF002001F0004170BDC4F10004BA
:108CA000203C35DA0C341BDC04F11404C4F120053B
:108CB00000FA05F320FA04F001FA05F240EA020096
:108CC00001F0004221F0004110EBD37021FA04F6CC
:108CD00042EB06015EEA430E08BF20EAD37070BD86
:108CE000C4F10C04C4F1200500FA04F320FA05F0E5
:108CF00001FA04F240EA020001F0004110EBD370E7
:108D000041F100015EEA430E08BF20EAD37070BD56
:108D1000C4F1200500FA05F24EEA020E20FA04F32F
:108D200001FA05F243EA020321FA04F001F00041DE
:108D300021FA04F220EA020000EBD3705EEA430E4F
:108D400008BF20EAD37070BD94F0000F0FD101F07E
:108D50000046400041EB010111F4801F08BF013CB7
:108D6000F7D041EA060195F0000F18BF704703F0F5
:108D70000046520043EB030313F4801F08BF013D7C
:108D8000F7D043EA0603704794EA0C0F0CEA135538
:108D900018BF95EA0C0F0CD050EA410618BF52EAF2
:108DA0004306D1D181EA030101F000414FF00000F8
:108DB00070BD50EA410606BF1046194652EA430606
:108DC00019D094EA0C0F02D150EA013613D195EA7A
:108DD0000C0F05D152EA03361CBF104619460AD1C2
:108DE00081EA030101F0004141F0FE4141F47001CC
:108DF0004FF0000070BD41F0FE4141F4780170BDBC
:108E000070B54FF0FF0C4CF4E06C1CEA11541DBF20
:108E10001CEA135594EA0C0F95EA0C0F00F0A7F822
:108E2000A4EB050481EA030E52EA03354FEA01314F
:108E300000F088804FEA03334FF0805545EA131362
:108E400043EA12634FEA022245EA111545EA10652A
:108E50004FEA00260EF000419D4208BF964244F1C1
:108E6000FD0404F5407402D25B084FEA3202B61AE0
:108E700065EB03055B084FEA32024FF480104FF4B4
:108E8000002CB6EB020E75EB030E22BFB61A754628
:108E900040EA0C005B084FEA3202B6EB020E75EBBB
:108EA000030E22BFB61A754640EA5C005B084FEA23
:108EB0003202B6EB020E75EB030E22BFB61A7546F0
:108EC00040EA9C005B084FEA3202B6EB020E75EBFB
:108ED000030E22BFB61A754640EADC0055EA060EBC
:108EE00018D04FEA051545EA16754FEA06164FEAFF
:108EF000C30343EA52734FEAC2025FEA1C1CC0D1AB
:108F000011F4801F0BD141EA00014FF000004FF037
:108F1000004CB6E711F4801F04BF01430020B4F1F8
:108F2000FD0C88BFBCF5E06F3FF6AFAEB5EB030CB0
:108F300004BFB6EB020C5FEA500C50F1000041EBAD
:108F4000045170BD0EF0004E4EEA113114EB5C047A
:108F5000C2BFD4EB0C0541EA045170BD41F480114D
:108F60004FF0000E013C90E645EA060E8DE60CEA55
:108F7000135594EA0C0F08BF95EA0C0F3FF43BAF72
:108F800094EA0C0F0AD150EA01347FF434AF95EA29
:108F90000C0F7FF425AF104619462CE795EA0C0F0D
:108FA00006D152EA03353FF4FDAE1046194622E7DA
:108FB00050EA410618BF52EA43067FF4C5AE50EAB4
:108FC00041047FF40DAF52EA43057FF4EBAE12E7A4
:108FD0004A0011D212F5001211D20DD56FF4787338
:108FE000B3EB62520ED44FEAC12343F0004343EA8D
:108FF000505323FA02F070474FF00000704750EAD8
:10900000013002D14FF0FF3070474FF00000704741
:10901000002301461A46184600F082B90A449142DC
:1090200000F1FF3300D1704710B511F8014B03F880
:10903000014F9142F9D110BD884210B501EB0204F5
:1090400002D98442234607D8431EA14208D011F812
:10905000012B03F8012FF8E7024401468A4200D1B0
:1090600010BD13F8014D02F8014DF7E70244034625
:10907000934200D1704703F8011BF9E738B50D4B57
:109080001D68AB6B04467BB91820FDF761F80A4AEE
:109090000A4BA863C0E90023094B83600B2383813B
:1090A00001220023C0E90423AB6B00221C615A613A
:1090B00038BD00BF04DF03200E33CDAB34126DE6A4
:1090C000ECDE0500134B10B51C68A36B7BB91820B0
:1090D000FDF73EF8104A114BA063C0E90023104B86
:1090E00083600B23838101220023C0E90423A16B49
:1090F0000C480A694B690C4C504304FB0300A2FB6B
:1091000004345A1C044444F10000C1E9042020F056
:10911000004010BD04DF03200E33CDAB34126DE6EA
:10912000ECDE05002DF451582D7F954CC9B2034655
:1091300010F8012B1AB18A42F9D11846704700295C
:1091400018BF0023F9E710B50446FFF7EFFF18B981
:10915000204600F032F8204410BD10F8012B11F821
:10916000013B012A28BF9A42F7D0D01A7047034624
:1091700011F8012B03F8012B002AF9D170470000E8
:10918000024B0146186800F003B800BF04DF03205B
:1091900037B5044608460D4600F00FF8421C11464C
:1091A00020460192FDF704F8044618B1019A2946B9
:1091B000FFF734FF204603B030BD034613F8012B00
:1091C000002AFBD1181A0138704710B56AB101396D
:1091D000841810F8013B11F8012F934203D1A042EB
:1091E00001D0002BF5D1981A10BD1046FCE738B518
:1091F00003460C4669B9BDE83840FFF797BF431CEA
:10920000054621461846FFF791FF0028F7D128466A
:1092100038BD0025F5E700002DE9F0473A4E8646B7
:109220008C4660461CF8014BA55D15F00805F8D189
:109230002D2C33D19CF800404FF0010800F1020CB6
:10924000002B5CD0102B0CD1302C0AD19CF80000E4
:1092500000F0DF0058284DD19CF8014010230CF19C
:10926000020C08F10047013F0026B7FBF3F9304636
:1092700003FB197AA4F13005092D18D82C46A34216
:1092800024DD751C07D081451DD301D1A2451ADB11
:1092900000FB034001261CF8014BEBE72B2C08BF19
:1092A0009CF80040A84608BF00F1020CC8E7A4F1F2
:1092B0004105192D01D8373CE1E7A4F16105192DCD
:1092C00004D8573CDBE74FF0FF36E4E7731C06D1C8
:1092D0002223CEF80030384642B9BDE8F087B8F115
:1092E000000F00D04042002AF7D00EB10CF1FF3140
:1092F0001160F2E73024002BB3D10823B1E7302C02
:10930000A4D00A23ADE700BF8A9A0D0013460A468F
:10931000014602480068FFF77FBF00BF04DF03205B
:109320002DE9F843DFF8B8800646D8F800001F465C
:109330000D46914600F056F8254B1C6834B9254C73
:109340001C60254B13B11B68C4F8883063681F2B61
:1093500007DDD8F8000000F047F84FF0FF30BDE817
:10936000F8834EB3D4F8880088B91C4B23B9D8F8D9
:10937000000000F038F8F0E74FF48470FCF7E8FEE6
:109380000028F4D00023C0E94033C4F888006368A3
:1093900040F8239001229A4000EB8301D0F800317D
:1093A0001343022EC0F80031C1F8807002BFD0F81C
:1093B00004311A43C0F804216368D8F800005A1C2D
:1093C0000233626044F8235000F00EF80020C6E734
:1093D000E4E7032058E703200000000051610D007E
:1093E00068DF0320704770477047000021400D0080
:1093F0005D400D0085400D0089400D00000000001B
:10940000696E6974206661696C6564005374617289
:1094100074757020636F6D706C657465202D2062AB
:109420006174746572792025342E326600756E730E
:1094300075636365737366756C0053656E64696EFE
:109440006720746F206D616E616765725F6D657313
:10945000685F736572766572310073656E64696EFC
:1094600067206D657373616765202564007061799D
:109470006C6F616420746F20736572766572310061
:1094800073656E64696E6700526573706F6E7365A5
:109490003A2030782530327820727373693D256424
:1094A000202D2064656C69766572792025730055DE
:1094B0007064617465004E6F207265706C792C2049
:1094C000697320726639355F6D6573685F736572A5
:1094D000766572312C20726639355F6D6573685F11
:1094E0007365727665723220616E642072663935FA
:1094F0005F6D6573685F7365727665723320727530
:109500006E6E696E673F0073656E64746F57616954
:1095100074206661696C65642E20417265207468F0
:109520006520696E7465726D656469617465206D2E
:1095300065736820736572766572732072756E6EDE
:10954000696E673F0000000000000000000000009E
:109550000000000000000000A5400D00C9400D0003
:109560000000000000000000E1400D0015410D006A
:10957000797A0D00CB400D000000000000000000D3
:1095800000000000000000003D480D00A5400D0057
:10959000A5400D00A5400D00A5400D009F480D0001
:1095A00041480D00EF480D00BD480D0013490D0066
:1095B0004B480D0053480D0057480D005B480D0007
:1095C0005F480D0063480D004F480D006F480D00C7
:1095D00073480D0077480D007B480D007F480D0053
:1095E00085480D0089480D004B480D008D480D0041
:1095F00093480D0099480D00000000000000000095
:10960000A5400D0071490D0073490D00A5400D00E6
:10961000A5400D007B490D007F490D0083490D00D9
:1096200075490D0077490D0079490D006465666143
:10963000756C7420004D5342004C5342003C535013
:109640004953657474696E67732064656661756CEF
:10965000743E003C53504953657474696E677320BF
:1096600025732575202573204D4F444525753E00F3
:109670000000000000000000C9490D009D490D00D8
:109680009F490D0000000000000000007D4A0D0011
:10969000914A0D009F4A0D00AD4A0D00194B0D0077
:1096A0007B490D007F490D0083490D00274B0D00BC
:1096B0003B4B0D00494B0D00000000000000000076
:1096C000194C0D00214F0D00754B0D00614B0D0025
:1096D000000000000000000087510D00CB510D007C
:1096E000000000000000000000000000000000007A
:1096F00069540D00A5400D00A5400D00A5400D00CA
:10970000A5400D009F480D0041480D00EF480D0099
:10971000BD480D0013490D004B480D0053480D0086
:1097200057480D005B480D005F480D0063480D0071
:109730004F480D006F480D0073480D0077480D002D
:109740007B480D007F480D0085480D0089480D00BD
:109750004B480D008D480D0093480D0099480D00B1
:1097600095540D009F540D00727404927404489433
:109770000478C40C72B40400000000000000000073
:1097800007560D003F560D00015B0D0067590D0097
:1097900075560D00AF590D0003560D009F480D0082
:1097A00041480D00EF480D00BD480D0013490D0064
:1097B00009560D0053480D0057480D005B480D0039
:1097C0005F480D0063480D004F480D006F480D00C5
:1097D00073480D0077480D007B480D007F480D0051
:1097E00085480D0089480D004F560D008D480D002D
:1097F00093480D0099480D0095540D009F540D009D
:10980000FF550D0000000000000000007B620D000D
:1098100071620D0067620D001D620D005B620D003C
:109820004F620D00D17D0D00D97D0D0043620D000A
:109830003B620D0031620D0027620D00097E0D00B4
:109840000000000000000000B5620D00BB620D00CA
:109850000B630D00C9620D00B7620D00000000002F
:109860000000000083680D0079680D006F680D002E
:1098700065680D0059680D004D680D00D17D0D0023
:10988000D97D0D0041680D0039680D002F680D006D
:1098900025680D00097E0D0000000000000000009A
:1098A000A1680D00EB680D00C3680D00A3680D00F2
:1098B000CB680D00D3680D00DB680D00E3680D0078
:1098C000000000000000000085690D0075690D00B2
:1098D00077690D0025750075253034780062617553
:1098E000640053657269616C0053657269616C3123
:1098F000004A534F4E53747265616D4C6F674861F7
:109900006E646C65720061707000253031307520B6
:10991000005D20002C200028293A2000205B0063F5
:109920006F6465203D200025690064657461696C81
:1099300073203D20000D0A006D0063006C6E006610
:109940006E007400636F64650064657461696C0027
:109950000000000000000000416E0D00676E0D0069
:10996000256E0D00856A0D0000000000000000005B
:1099700095720D00AD720D00797A0D00CB400D008F
:109980000000000000000000C1720D00D5720D0043
:109990001D7C0D002D6E0D00000000000000000079
:1099A0003F6E0D00756E0D00B5790D002F6E0D0028
:1099B00000000000000000003D6E0D00836E0D00F1
:1099C000DD710D00A16E0D00000000000000000020
:1099D000917D0D009B7D0D00A57D0D00AF7D0D00DF
:1099E000B97D0D00C57D0D00D17D0D00D97D0D0027
:1099F000E17D0D00ED7D0D00F57D0D00FF7D0D007D
:109A0000097E0D00000810182028303825592D2512
:109A10006D2D25645425483A254D3A2553257A0065
:109A200061736374696D6500000000000000000050
:109A300085830D00F3830D00CB830D00F17E0D00B7
:109A40009B830D00B7830D00A9830D00C5830D0016
:109A500087830D008D830D000000000000000000D2
:109A600093840D00FB840D00D1840D00F17E0D0068
:109A7000C3840D0095840D00A5840D00F5840D00B0
:109A8000B5840D008D840D000000202020202020B2
:109A9000202020282828282820202020202020209E
:109AA000202020202020202020208810101010109E
:109AB00010101010101010101010040404040404EE
:109AC00004040404101010101010104141414141D1
:109AD0004101010101010101010101010101010136
